:020000040800F2
:10000000E86A0120D9580108F7580108F958010891
:10001000FB580108FD580108FF58010800000000C6
:10002000000000000000000000000000015901086D
:10003000035901080000000005590108075901088B
:100040000959010809590108095901080959010804
:1000500009590108095901080959010809590108F4
:1000600009590108095901080959010809590108E4
:1000700009590108095901080959010809590108D4
:1000800009590108095901080959010809590108C4
:1000900009590108095901080959010809590108B4
:1000A00009590108095901080959010809590108A4
:1000B000294C0108858C00086B9700080959010834
:1000C0000959010809590108095901080959010884
:1000D0000959010809590108095901080959010874
:1000E0000959010809590108095901080959010864
:1000F0000959010809590108095901080959010854
:100100000959010809590108095901080959010843
:10011000095901080959010819880008534C0108B8
:100120000959010809590108095901080959010823
:100130000959010809590108095901080959010813
:100140000959010809590108095901080959010803
:1001500009590108095901080959010809590108F3
:1001600009590108095901080959010809590108E3
:1001700009590108095901080959010809590108D3
:10018000095901080959010800F002F800F0B2F815
:100190000AA090E8000C82448344AAF10107DA45E2
:1001A00001D100F0A7F8AFF2090EBAE80F0013F082
:1001B000010F18BFFB1A43F0010318474CC9010097
:1001C0007CC901000A444FF0000C10F8013B13F009
:1001D000070408BF10F8014B1D1108BF10F8015BA0
:1001E000641E05D010F8016B641E01F8016BF9D193
:1001F00013F0080F1EBF10F8014BAD1C0C1B09D1EA
:100200006D1E58BF01F801CBFAD505E014F8016B5B
:1002100001F8016B6D1EF9D59142D6D370470000ED
:100220000023002400250026103A28BF78C1FBD8FF
:10023000520728BF30C148BF0B6070476E2917F0C6
:10024000C987702918F0198066291BF03F8065293D
:100250001BF03C8067291BF0398061291BF0388036
:1002600003681B0A28BF41F08001692917F07687CF
:10027000642917F07387752917F070876F2918F0B4
:100280004985782917F0E587E92918F0E384E429FE
:1002900018F0E084F52918F0DD84EF2918F0468580
:1002A000F82917F0E4870368DB0928BF41F08001D3
:1002B000632918F06484732918F06984E32918F01D
:1002C0009387F32918F09887002070471FB51AF01C
:1002D000F3FF18F06BFD0400002000211AF0D2FAA1
:1002E000401C6060002000211AF0B6FAE0601FBDDB
:1002F00010B510BD19F0D0F91146FFF7E7FF07F070
:10030000A3F819F0F7F903B4FFF7F2FF03BC19F0F3
:100310003BFA0000BFF34F8FFE48006800F4E06036
:10032000FD490843001DFB490860BFF34F8F00E003
:1003300000BFFDE710B50446B4F5886F20D011DC8E
:1003400040F22341A4EB01008C421FD005DCA4F253
:10035000134090B1032833D110E0032829D0172887
:100360002ED10CE0B4F5966F17D0A4F2B340A8B12B
:10037000032811D04D2823D121E022E021E020E004
:100380004AF65521E548C0F800111AE04AF6552111
:10039000E248C0F8181114E013E012E0E048B0F8A9
:1003A0007810DE48C0F804124AF65521C0F8081249
:1003B00007E04AF65521D948C0F8281201E000E0CC
:1003C00000BF00BFD748D54948600AF030FA10BDD9
:1003D000D548A0F17401D1F8BC21D049C1F8E4207E
:1003E000A0F17401D1F8C021CC49C1F8E8204AF647
:1003F0005522C1F8EC20CD49D1F89410C74A51617B
:10040000CA49D1F89820C5498A61C84991F89C2009
:10041000C2490A77C54991F89D20C0494A77C34926
:1004200091F89E20BD498A774AF655220A622C30FF
:10043000426BC1F8F020826BC1F8F420C26AC1F8A7
:10044000F820C26BC1F8FC204AF65522C1F8002101
:10045000026EC1F81C21426EC1F82021826EC1F8E3
:100460003421C26EC1F83821026FC1F84C21426FAD
:10047000C1F85021826FC1F86421C26FC1F86821B0
:10048000A0F1A001D1F8D021A449C1F8D021A0F158
:10049000A001D1F8D421A149C1F8D421A0F1A00133
:1004A000D1F8D8219D49C1F8D821A0F1A001D1F8F7
:1004B000DC219A49C1F8DC21A0F1A001D1F8E021AA
:1004C0009649C1F8E021A0F1A001D1F8E4219349B7
:1004D000C1F8E421A0F1A001D1F8E8218F49C1F8C9
:1004E000E821A0F1A001D1F8EC218C49C1F8EC2160
:1004F000426CC1F8F02150F80C2CC1F8F421026DC7
:100500002C38C1F8F821A0F174010A688349C1F8B8
:10051000FC214AF65522C1F800228549098F8AB28A
:100520007E49A1F834228249898F8AB27B49A1F899
:1005300036227F49098A8AB27849A1F838227C4953
:1005400009898AB27549A1F83A227949898A8AB219
:100550007249A1F83C22764989898AB26F49A1F88B
:100560003E224AF65522C1F8402272490A686B4978
:10057000C1F844226F494A686849C1F848226D4968
:100580008A686649C1F84C226A49CA686349C1F859
:10059000502268490A696149C1F8542265494A698B
:1005A0005E49C1F8582263498A695C49C1F85C22F6
:1005B0006049CA695949C1F860224AF65522C1F812
:1005C00064225C490A6A5549C1F8682259494A6A55
:1005D0005249C1F86C2257498A6A5049C1F87022C1
:1005E0005449CA6A4D49C1F8742252490A6B4B49B1
:1005F000C1F878224F494A6B4849C1F87C224D49DD
:100600008A6B4649C1F880224A49CA6B4349C1F8FE
:1006100084224AF65522C1F8882246490A6C3F498D
:10062000C1F88C2243494A6C3C49C1F890224149A7
:100630008A6C3A49C1F894223E49CA6C3749C1F8DC
:1006400098223C490A6D3549C1F89C2239494A6DC6
:100650003249C1F8A02237498A6D3049C1F8A42235
:100660003449CA6D2D49C1F8A8224AF65522C1F86D
:10067000AC2230490A6E2949C1F8B0222D494A6E90
:100680002649C1F8B4222B498A6E2449C1F8B82200
:100690002849CA6E2149C1F8BC2226490A6F1F4960
:1006A000C1F8C02223494A6F1C49C1F8C42221491C
:1006B0008A6F1A49C1F8C8221E49CA6F1749C1F882
:1006C000CC224AF65522C1F8D0221B490A6F1349A1
:1006D0000A671A490A6F11494A6717494A6F0F4951
:1006E0008A6716494A6F0D49CA671349D1F88020B5
:1006F0000A49C1F880201149D1F880200749C1F882
:1007000084200D49D1F884200449C1F888200B4980
:1007100016E000000CED00E00000FA050860012082
:100720000406002002000100F45B0120885D012026
:10073000080000207463012040070020C00800204A
:10074000D1F88420FB49C1F88C20FB49D1F88820DE
:10075000F849C1F89020F949D1F88820F549C1F845
:100760009420F549D1F88C20F249C1F89820F3493A
:10077000D1F88C20EF49C1F89C20EF490A6EED4971
:10078000C1F8A020ED490A6EEA49C1F8A420EA495F
:100790004A6EE849C1F8A820E8494A6EE549C1F81F
:1007A000AC20E5498A6EE349C1F8B020E3498A6E7E
:1007B000E049C1F8B420E049CA6EDE49C1F8B8206A
:1007C000DE49CA6EDB49C1F8BC204AF65522C1F8A1
:1007D000D420D9498A6DD749CA65D8498A6DD54987
:1007E0000A66D549CA6DD3494A66D449CA6DD1490A
:1007F0008A664AF65522CA66CF498A6CCD498A6410
:10080000CE498A6CCB49CA64CB49CA6CC9490A65CE
:10081000CA49CA6CC7494A65C7498A6BC5498A63D0
:10082000C6498A6BC349CA63C349CA6BC1490A64D2
:10083000C249CA6BBF494A64BF49D1F8D420BD49F7
:100840008A62BE49D1F8D420BA49CA62BA49D1F8FD
:10085000D820B8490A63B949D1F8D820B5494A63C4
:100860004AF655228A65A0F17401D1F8D021B14928
:10087000C1F8D021A0F17401D1F8D421AD49C1F85B
:10088000D421A0F17401D1F8D821AA49C1F8D82106
:10089000A0F17401D1F8DC21A649C1F8DC21A0F156
:1008A0007401D1F8E021A349C1F8E021A0F174015D
:1008B000D1F8E4219F49C1F8E421A0F17401D1F8F5
:1008C000E8219C49C1F8E821A0F17401D1F8EC219C
:1008D0009849C1F8EC21026FC1F8F021026AC1F811
:1008E000F421C26FC1F8F821A0F174010A6891499E
:1008F000C1F8FC214AF65522C1F800228E498A6AC5
:100900008C49C1F8D4228C49CA6A8A49C1F8DC22D0
:100910008A498A6A8749C1F8D8228849CA6A8549BA
:10092000C1F8E02284490A6B8249C1F8E422824975
:100930004A6B8049C1F8E82280490A6B7D49C1F8B9
:10094000EC227E494A6B7B49C1F8F0224AF65522D7
:10095000C1F8F4227A49CA6B7649C1F8F82278497D
:100960000A6C7449C1F8FC2275494A6C7149C1F896
:10097000002373498A6C6F49C1F804237049CA6C1B
:100980006C49C1F808236E490A6D6A49C1F80C2305
:100990006B494A6D6749C1F8102369498A6D6549F9
:1009A000C1F814236649CA6D6249C1F81823644925
:1009B0000A6E6049C1F81C236249CA6B5D49C1F8DF
:1009C000202360490A6C5B49C1F824235D494A6CC5
:1009D0005849C1F828235B498A6C5649C1F82C2331
:1009E0005849CA6C5349C1F8302356490A6D5149D8
:1009F000C1F8342353494A6D4E49C1F8382351494F
:100A00008A6D4C49C1F83C234E49CA6D4949C1F829
:100A100040234C490A6E4749C1F844234AF65522FF
:100A2000C1F8482348490969424AD16070471FB557
:100A300004460E20454988700020C8708120087146
:100A4000012C0BD10120ADF8000041480068CDF821
:100A500002000020CDF80600CDF80A00022C0BD1D0
:100A60000220ADF800003A484068CDF802000020AE
:100A7000CDF80600CDF80A00042C0BD10420ADF807
:100A8000000033488068CDF802000020CDF8060051
:100A9000CDF80A00082C0BD10820ADF800002C4836
:100AA000C068CDF802000020CDF80600CDF80A009D
:100AB0000621264807F051FE0E21684607F04DFE3C
:100AC0001FBD2DE9F04701460020844600228046E4
:100AD000204CDFF8849099F80230172B73D010DC8B
:100AE0000B2B71D006DC032B3AD0052B43D0072B00
:100AF0006BD1FCE00F2B69D0132B68D0152BF7D1ED
:100B0000B8E2302B7ED006DC192B7CD02B2B07D003
:100B10002D2BEDD15CE0322B76D0342BE8D18EE159
:100B200004200B80DFF83490B9F89890A1F8029077
:100B300007E200000860012040070020C0080020F4
:100B40003C0C0020B80C0020B85F0120830000207E
:100B5000400A0020F45B0120BC110020885D0120C8
:100B600008200B804FF00109A1F802904FF06409B2
:100B7000C1F80490E5E1DFF8609C99F803200C20AF
:100B80000B804A80012A04D1DFF8509CD9F800502C
:100B900013E0022A04D1DFF8489CD9F800500CE099
:100BA000042A04D1DFF8349CD9F8045005E0082A5F
:100BB00003D1DFF82C9CD9F804504D604FF00009A8
:100BC000C1F80890BDE1B9E281E1FDE362E1B9E17C
:100BD000DFF8049C99F8032016200B804A80012A34
:100BE00022D1DFF8F89BB9F87090A1F80490DFF8F3
:100BF000EC9BD9F88090C1F80690DFF8E09BD9F81B
:100C0000889002E0CEE0D2E2EEE0C1F80A90DFF890
:100C1000CC9BD9F86890C1F80E90DFF8C09BD9F84A
:100C20006090C1F8129061E0022A1ED1DFF8B09BFB
:100C3000B9F87090A1F80490DFF8A49BD9F88090DF
:100C4000C1F80690DFF8989BD9F88890C1F80A900F
:100C5000DFF88C9BD9F86890C1F80E90DFF8809B84
:100C6000D9F86090C1F8129040E0042A1ED1DFF854
:100C70006C9BB9F87490A1F80490DFF8609BD9F8E8
:100C80008490C1F80690DFF8549BD9F88C90C1F895
:100C90000A90DFF8489BD9F86C90C1F80E90DFF805
:100CA0003C9BD9F86490C1F812901FE0082A1DD12E
:100CB000DFF82C9BB9F87490A1F80490DFF8209B22
:100CC000D9F88490C1F80690DFF8149BD9F88C907D
:100CD000C1F80A90DFF8089BD9F86C90C1F80E9023
:100CE000DFF8FC9AD9F86490C1F8129084E3DFF839
:100CF000E89A99F803200E200B804A80012A12D12D
:100D0000DFF8D89AB9F8D490A1F80490DFF8CC9A1B
:100D1000D9F84890C1F80690DFF8C09AD9F8389011
:100D2000C1F80A903DE0022A12D1DFF8B49AB9F86E
:100D3000D490A1F80490DFF8A89AD9F84890C1F8A7
:100D40000690DFF89C9AD9F83890C1F80A9028E00C
:100D5000042A12D1DFF8849AB9F8D890A1F8049047
:100D6000DFF8789AD9F84C90C1F80690DFF86C9AC1
:100D7000D9F83C90C1F80A9013E0082A11D1DFF8A5
:100D8000609AB9F8D890A1F80490DFF8549AD9F88D
:100D90004C90C1F80690DFF8489AD9F83C90C1F819
:100DA0000A9029E3DFF8309A99F8032012200B808B
:100DB0004A80DFF8309AB9F8BC91A1F80490DFF8C6
:100DC000249AD9F8C091C1F806904FF00009A1F813
:100DD0000A904FF0000A01F10A09A1F80CA0A1F84D
:100DE0000EA0A1F810A007E3DFF8EC9999F8032012
:100DF0000820012A06D1DFF8E499D9F83090C1F82B
:100E0000049019E0022A06D1DFF8D499D9F830907D
:100E1000C1F8049010E0042A06D1DFF8C099D9F88F
:100E20003490C1F8049007E0082A05D1DFF8B099A2
:100E3000D9F83490C1F804900B804A80DCE2DFF8E6
:100E4000989999F8032008200B804A80012A06D13E
:100E5000DFF88899D9F82890C1F8049019E0022A9F
:100E600006D1DFF87C99D9F82890C1F8049010E0F9
:100E7000042A06D1DFF86499D9F82C90C1F80490BF
:100E800007E0082A05D1DFF85899D9F82C90C1F865
:100E90000490B1E210200B804FF00109A1F80290FC
:100EA000012A08D1A1F80490A1F8069032278F609A
:100EB0000A26CE600AE0022A08D19146A1F80490E1
:100EC000A1F8069032278F600C26CE6094E2DFF8FE
:100ED000089999F803200A200B804A80012A08D13A
:100EE000B4F88C90A1F80490B4F89090A1F8069012
:100EF00023E0022A0CD1B4F89490A1F80490B4F83D
:100F00009890A1F806904FF00109A1F8089014E01C
:100F1000042A08D1B4F89C90A1F80490B4F8A090E9
:100F2000A1F8069009E0082A07D1B4F8A490A1F826
:100F30000490B4F8A890A1F806904FF00109A1F828
:100F4000089059E2DFF8909899F8032012200B805E
:100F50004A80012A22D14FF00109A1F80290DFF85E
:100F60008898B9F8A090A1F80490DFF87C98D9F897
:100F7000A890C1F80690DFF87098D9F8B090C1F841
:100F80000A90DFF86498B9F8B890A1F80E90DFF8ED
:100F90005898B9F8C090A1F810906AE0022A21D1BF
:100FA0009146A1F80290DFF84098B9F8A490A1F812
:100FB0000490DFF83498D9F8AC90C1F80690DFF8C7
:100FC0002898D9F8B490C1F80A90DFF81C98B9F8BD
:100FD000BC90A1F80E90DFF81098B9F8C490A1F871
:100FE000109046E0042A21D19146A1F80290DFF842
:100FF000F897B9F8A890A1F80490DFF8EC97D9F821
:10100000B090C1F80690DFF8E097D9F8B890C1F831
:101010000A90DFF8D497B9F8C090A1F80E90DFF8E5
:10102000C897B9F8C890A1F8109022E0082A20D1FA
:101030009146A1F80290DFF8B097B9F8AC90A1F80A
:101040000490DFF8A497D9F8B490C1F80690DFF8BF
:101050009897D9F8BC90C1F80A90DFF88C97B9F846
:10106000C490A1F80E90DFF88097B9F8CC90A1F861
:101070001090C1E1DFF8609799F803201E200B80E3
:101080004A80012A0CD1DFF85C97D9F8D091C1F8D9
:101090000C90DFF85097D9F8D491C1F810902BE05C
:1010A000022A0CD1DFF83C97D9F8D891C1F80C90FE
:1010B000DFF83097D9F8DC91C1F810901CE0042AD1
:1010C0000CD1DFF82097D9F8E091C1F80C90DFF847
:1010D0001497D9F8E491C1F810900DE0082A0BD1CB
:1010E000DFF80097D9F8E891C1F80C90DFF8F49692
:1010F000D9F8EC91C1F81090B4F8209009F10109E9
:10110000A1F80490D4F87090C1F80690B4F87C90DF
:10111000A1F80A90DFF8CC96B9F80090A1F81490E5
:101120004FF00009A1F81690CA4601F11609A1F87E
:1011300018A0A1F81AA0A1F81CA05DE11A200B804C
:10114000DFF8A896B9F83890A1F80290DFF89C96DD
:10115000B9F83C90A1F80490DFF89096B9F8109097
:10116000A1F80690DFF88496B9F80890A1F80890E5
:10117000DFF87896B9F81490A1F80A90DFF86C9629
:10118000B9F80C90A1F80C904FF00009A1F80E905E
:101190004FF0000A01F10E09A1F810A0A1F812A069
:1011A000A1F814A0A1F816A0A1F818A024E1DFF876
:1011B000289699F8032030200B804A80012A06D017
:1011C000022A37D0042A68D0082A7DD19AE0DFF8B5
:1011D0002096D9F80090DFF81CA6CAF80090DFF836
:1011E0001096D9F80490CAF80490DFF80496D9F85C
:1011F0000890CAF80890DFF8F895D9F80C90CAF86A
:101200001090DFF8EC95D9F81090CAF81490DFF838
:10121000E095D9F81490CAF81890DFF8D495D9F869
:101220001890CAF80C90DFF8C895D9F81C90CAF845
:1012300020909BE0DFF8B895D9F82090DFF8B4A5AE
:10124000CAF80090DFF8A895D9F82490CAF804905D
:10125000DFF89C95D9F82890CAF80890DFF89095A7
:10126000D9F82C90CAF81090DFF88495D9F830900E
:10127000CAF81490DFF87895D9F83490CAF8189025
:10128000DFF86C95D9F83890CAF80C90DFF86095C3
:10129000D9F83C90CAF8209068E0DFF85495D9F866
:1012A0004090DFF850A5CAF80090DFF84495D9F8CF
:1012B0004490CAF80490DFF83895D9F84890CAF8F5
:1012C0000890DFF82C9500E04FE0D9F84C90CAF870
:1012D0001090DFF81C95D9F85090CAF81490DFF8F8
:1012E0001095D9F85490CAF81890DFF80495D9F8F9
:1012F0005890CAF80C90DFF8F894D9F85C90CAF8C6
:10130000209033E0DFF8E894D9F86090DFF8E4A4A7
:10131000CAF80090DFF8D894D9F86490CAF804901D
:10132000DFF8CC94D9F86890CAF80890DFF8C09438
:10133000D9F86C90CAF81090DFF8B494D9F870908E
:10134000CAF81490DFF8A894D9F87490CAF81890E5
:10135000DFF89C94D9F87890CAF80C90DFF8909454
:10136000D9F87C90CAF8209000E000BF00BFDFF8F9
:101370008494D9F80090C1F80490DFF87894D9F8F3
:101380000490C1F80890DFF86C94D9F80890C1F87F
:101390000C90DFF86094D9F81090C1F81090DFF845
:1013A0005494D9F81490C1F81490DFF84894D9F8FF
:1013B0001890C1F81890DFF83C94D9F80C90C1F857
:1013C0001C90DFF8309400E015E0D9F82090C1F8C7
:1013D00020904FF00009A1F82490CA4601F1240999
:1013E000A1F826A0A1F828A0A1F82AA0A1F82CA075
:1013F000A1F82EA000E000BF00BFBDE8F0872DE9F6
:10140000F047F84D7435F44CA41DA01FC0881FFA96
:1014100080F9B9F1190F01F0838115DCB9F1130FCF
:101420007CD00ADCB9F1050F79D0B9F1070F77D07C
:10143000B9F10B0F41F05D821CE0B9F1150F70D0CE
:10144000B9F1170FF6D190E3B9F1320F6AD009DC88
:10145000B9F12B0F38D0B9F12D0F64D0B9F1300F9D
:10146000E8D163E2B9F1340F5ED0B9F1360FE1D1C2
:1014700001F0DCB96788012F06D0022F0BD0042FB2
:1014800010D0082F1CD114E0A088C5F88C00E0888B
:10149000C5F8900015E0A088C5F89400E088C5F86C
:1014A00098000EE0A088C5F89C00E088C5F8A00070
:1014B00007E0A088C5F8A400E088C5F8A80000E00F
:1014C00000BF00BF01F016BAB4F80280CA48806AB3
:1014D00028B100BF00200CF00BFE0028FAD1C6484E
:1014E000C06A28B100BF00200CF021FE0028FAD10C
:1014F000C148006B28B100BF01200CF0F9FD0028A5
:10150000FAD1BD48406B28B100BF01200CF00FFE9E
:101510000028FAD1B8F1070F71D206E026E21EE1E9
:1015200036E1B6E27BE2B0E196E2DFE808F00413D0
:101530003D6994BFEA000020B049C1F894004FF41F
:101540000060AF498861401088610020AB49C1F854
:10155000980002E10120A949C1F89400C1F898005F
:10156000432081F89C006821A44880F89D10312117
:1015700080F89E104FF40060A14988614010886196
:101580004004886100209549C1F814019449C1F8CC
:1015900014019248D0F8D4009249C1F8B801D1F8AA
:1015A000B8010EF0F2FED8E001209449C1F8940091
:1015B0000220C1F89800432081F89C0068218F48E0
:1015C00080F89D10322180F89E104FF400608C4905
:1015D0008861401088614004886100207F49C1F81B
:1015E00014017F49C1F814010846D0F8D4007D49A0
:1015F000C1F8B801D1F8B8010EF0C7FEADE0ABE01C
:1016000001207E49C1F894000320C1F898004320CE
:1016100081F89C006821794880F89D10332180F87A
:101620009E104FF400607649886140108861000484
:10163000886101206949C1F814016949C1F81401A0
:101640006648D0F8D8006749C1F8B801D1F8B801A8
:101650000EF09BFE81E001206849C1F8940004204F
:10166000C1F89800432081F89C006821634880F805
:101670009D10342180F89E104FF40060604988610D
:10168000401088610004886101205449C1F81401A8
:101690005349C1F814015148D0F8D8005149C1F854
:1016A000B801D1F8B8010EF070FE56E0022053499F
:1016B000C1F894000520C1F89800312081F89C0001
:1016C0002B214E4880F89D10322180F89E104FF457
:1016D00000604B49886140108861400488610020A7
:1016E0003E49C1F814013E49C1F814013B48D0F805
:1016F000D4003C49C1F8B801D1F8B8010EF045FE5C
:101700002BE002203D49C1F894000620C1F8980062
:10171000332081F89C002B21384880F89D1034211B
:1017200080F89E104FF40060354988614010886150
:101730000004886101202949C1F814012849C1F831
:1017400014012648D0F8D8002649C1F8B801D1F8CC
:10175000B8010EF01AFE00E000BF00BFB2E66788D5
:10176000012F03D100201D49086010E0022F03D192
:1017700000201B4908600AE0042F03D1002017490C
:10178000486004E0082F02D100201549486099E61E
:10179000668801201449C1F8E800012E06D0022E07
:1017A00030D0042E44D0082E6CD156E0A0880B49CE
:1017B000C1F8D4000846D0F8D4000A49C1F8B801ED
:1017C000D1F8B8010EF0E1FDD4F8060003498864B1
:1017D000D4F80A00886356E0BC11002040070020BE
:1017E000C0080020805B0120400A00200800002083
:1017F00074630120E0040020E0060020885D0120E1
:1018000000100240A088FE49C1F8D4000846D0F874
:10181000D400FC49C1F8B801D1F8B8010EF0B5FD0B
:10182000D4F80600F6498864D4F80A0088632AE0F0
:10183000A188F548C0F8D810D0F8D800F149C1F80F
:10184000B801D1F8B8010EF0A0FDD4F80610EE48AA
:10185000C164D4F80A10C16315E0A188E848C0F853
:10186000D810D0F8D800E749C1F8B801D1F8B801CC
:101870000EF08BFDD4F80610E148C164D4F80A10CC
:10188000C16300E000BF00BF1CE66688012E06D0E1
:10189000022E15D0042E24D0082E44D132E0A41DEF
:1018A00034F8020CD84908672068C1F880006068E5
:1018B000C1F88800A0688866E068A41F086633E065
:1018C000A41D34F8020CCE4908672068C1F88000D6
:1018D0006068C1F88800A0688866E068A41F086690
:1018E00022E0A41D34F8021CC74841672168C0F8F3
:1018F00084106168C0F88C10A168C166E168A41FFB
:10190000416611E0A41D34F8021CBD4841672168FE
:10191000C0F884106168C0F88C10A168C166E168E5
:10192000A41F416600E000BF00BFCBE56688A08829
:10193000B449C1F8BC01D4F80600C1F8C00108469A
:10194000D0F8BC0110B90EF09BFB0EE0AD48D0F80A
:10195000BC01012802D10EF093FB06E0A948D0F8A3
:10196000BC01022801D112F070FFABE56688012EA0
:1019700006D0022E17D0042E28D0082E4CD138E0E5
:10198000A088A149C1F8A000D4F80600C1F8A800B9
:10199000D4F80A00C1F8B000E089C1F8B800208A84
:1019A000C1F8C00039E0A0889549C1F8A000D4F87A
:1019B0000600C1F8A800D4F80A00C1F8B000E08918
:1019C000C1F8B800208AC1F8C00026E0A1888E487E
:1019D000C0F8A410D4F80610C0F8AC10D4F80A105F
:1019E000C0F8B410E189C0F8BC10218AC0F8C41056
:1019F00013E0A1888248C0F8A410D4F80610C0F8FB
:101A0000AC10D4F80A10C0F8B410E189C0F8BC10CA
:101A1000218AC0F8C41000E000BF00BF52E566880C
:101A2000012E06D0022E08D0042E0AD0082E10D186
:101A30000BE06068744908630CE0606870490863F3
:101A400008E061687048416304E061686C48416384
:101A500000E000BF00BF35E56688012E06D0022EEB
:101A600008D0042E0AD0082E10D10BE06068664919
:101A700088620CE060686249886208E061686248D8
:101A8000C16204E061685E48C16200E000BF00BF5F
:101A900018E56788012F07D1E1685A48C0F8D011CE
:101AA0002169C0F8D4111CE0022F07D1E168554824
:101AB000C0F8D8112169C0F8DC1112E0042F07D159
:101AC000E1685048C0F8E0112169C0F8E41108E06D
:101AD000082F06D1E1684B48C0F8E8112169C0F829
:101AE000EC11A088401E2862D4F80600286760899F
:101AF000E867A08A4349086008680EF00FFB4FF4BE
:101B00007A71286F91FBF0F03F49C1F8D0004FF493
:101B10007A71286F91FBF0F03949C1F8D0003A484A
:101B2000D0F8D000B0F57A7F08DD4FF47A703649EE
:101B3000C1F8D0003249C1F8D0000BE03248D0F8EB
:101B4000D000012806DA01202F49C1F8D0002C4925
:101B5000C1F8D000286F0BF0ECFE2C498862286F8A
:101B60000BF0E7FE2A498862ACE460882949886363
:101B7000A088C863E088086120898860608948611E
:101B8000A089C860084600690D2807D0084600698A
:101B90000E2803D0084600690F2812D11D48806B1B
:101BA0001C490864084640690D2807D0084640696A
:101BB0000E2803D0084640690F2802D1002015499D
:101BC0004861144840690D2807D0124840690E2822
:101BD00003D0104840690F281FD10E48C06B0D4933
:101BE0000864084600690D2807D0084600690E28D9
:101BF00003D0084600690F280FD1002005490BE0EB
:101C0000C0080020805B0120400700203C0C002021
:101C1000B80C0020080000200861FB480069132868
:101C200070D2DFE800F00A162740596F6F6F6F6FB0
:101C3000708099B2FDFCFBFAF900012006F0C3FBAD
:101C40000020F2494862F24808600020EE4908632B
:101C5000A5E2012006F0B7FBEB488068012802D11D
:101C6000EA49086102E00020E8490861E948E749DB
:101C7000086094E2012006F0A6FB0220E249886198
:101C80000020086208468068012802D1DF49086107
:101C900002E00220DD490861DF48DC4908600020DD
:101CA000D94908637BE2012006F08DFB0420D64968
:101CB00088610020086208468068012802D1D34963
:101CC000086102E00220D1490861D448CF49086088
:101CD0000020CD49086362E2012006F074FB082071
:101CE000C94988610020086208468068012802D13D
:101CF000C649086102E00220C4490861C848C349D6
:101D000008604CE24AE2022006F05DFBC548BF498C
:101D10008860BD488068012801D1086102E0002088
:101D2000BA4908613BE2022006F04DFB0120B749A9
:101D300048622020B4490862002088610846806813
:101D4000012802D1B149486102E00220AF4948614F
:101D5000B548AE49886022E2022006F034FB01203B
:101D6000AA4948628020A849086200208861084684
:101D70008068012802D1A549486102E00220A349F8
:101D80004861AA48A149886009E2A948D0F89800AA
:101D9000012818D1A7480068A7490860A5484068ED
:101DA0004860A44880688860A248C0680861A1486B
:101DB000006948619F48406988619E488069C860A1
:101DC0009C48C06908629A48D0F89800022818D147
:101DD0009848006A984908609648406A4860954863
:101DE000806A88609348C06A08619248006B4861C5
:101DF0009048406B88618F48806BC8608D48C06B8D
:101E000008628B48D0F8980003281ED18948006CDE
:101E100089490860874804E0B9E1B1E1A9E111E12D
:101E200050E0406C48608348806C88608148C06C9A
:101E300008618048006D48617E48406D88617D483A
:101E4000806DC8607B48C06D08627948D0F8980002
:101E5000042818D17748006E774908607548406EAD
:101E600048607448806E88607248C06E086171482E
:101E7000006F48616F48406F88616E48806FC8602E
:101E80006C48C06F0862022006F09DFA5E48806BC5
:101E90005D49086408468068012805D1674866499D
:101EA00088620120486204E0654863498862002036
:101EB0004862614812F067FE12F097FD01205E490A
:101EC000C8626CE15A48D0F89800012818D15948E6
:101ED000006859490860574840684860554880681C
:101EE00088605448C0680861524800694861514898
:101EF000406988614F488069C8604E48C06908627F
:101F00004B48D0F89800022818D14A48006A4A493C
:101F100008604848406A48604648806A886045488A
:101F2000C06A08614348006B48614248406B886161
:101F30004048806BC8603F48C06B08623C48D0F89E
:101F40009800032818D13B48006C3B490860394889
:101F5000406C48603748806C88603648C06C0861C7
:101F60003448006D48613348406D88613148806D68
:101F7000C8603048C06D08622D48D0F89800042829
:101F800018D12C48006E2C4908602A48406E4860E1
:101F90002848806E88602748C06E08612548006F19
:101FA00048612448406F88612248806FC86021489A
:101FB000C06F0862022006F006FA1348806B1249CF
:101FC00008641D4800691C49086008464069404291
:101FD00048600846806988600B488068012804D101
:101FE000164888620120486204E015481249886258
:101FF00000204862104812F0C6FD12F0F6FC0120E5
:102000000D49C862CBE00000080000201805002040
:102010003B2F0108A32F01080B300108DD33010815
:10202000BB390108632F0108AB3A0108F33C0108F2
:10203000885D012074630120E0040020CD47010881
:10204000DD470108F948D0F89800012818D1F84870
:102050000068F8490860F64840684860F4488068BD
:102060008860F348C0680861F14800694861F04839
:1020700040698861EE488069C860ED48C0690862BF
:10208000EA48D0F89800022818D1E948006AE949DE
:102090000860E748406A4860E548806A8860E4482C
:1020A000C06A0861E248006B4861E148406B8861A2
:1020B000DF48806BC860DE48C06B0862DB48D0F840
:1020C0009800032818D1DA48006CDA490860D8482B
:1020D000406C4860D648806C8860D548C06C086108
:1020E000D348006D4861D248406D8861D048806D0A
:1020F000C860CF48C06D0862CC48D0F8980004286A
:1021000018D1CB48006ECB490860C948406E486082
:10211000C748806E8860C648C06E0861C448006FBA
:102120004861C348406F8861C148806FC860C0483B
:10213000C06F0862022006F046F9BF48806BBE49B6
:10214000086408468068012805D1BC48B9498862FE
:102150000120486204E0BA48B6498862002048621B
:10216000B44812F010FD12F040FC0120B149C862E1
:1021700015E0022006F027F9B248B34988600EE066
:10218000022006F020F9B148AF49886007E002203C
:1021900006F019F9AE48AC49886000E000BF00BF06
:1021A000A548406913286FD2DFE800F00A15263FE2
:1021B000586E6E6E6E6E6F7F98B1FEFDFCFBFA007E
:1021C000012006F0D5F8A3489F49486000208862A6
:1021D00099494863A2E2012006F0CAF89648C0680F
:1021E000012802D19849886102E00020964988615F
:1021F00099489549486091E2012006F0B9F802201B
:102200008D49C861002048620846C068012802D193
:102210008D49886102E002208B4988618F488A4994
:10222000486000208449486378E2012006F0A0F865
:1022300004208149C861002048620846C06801281E
:1022400002D18149886102E002207F498861844887
:102250007D4948600020784948635FE2012006F02C
:1022600087F808207449C861002048620846C068A1
:10227000012802D17449886102E002207249886114
:1022800078487149486049E247E2022006F070F858
:1022900075486D49C8606848C068012801D18861E7
:1022A00002E000206849886138E2022006F060F808
:1022B00001206549886220205F4948620020C8618A
:1022C0000846C068012802D15F49C86102E00220C7
:1022D0005D49C86165485C49C8601FE2022006F09C
:1022E00047F80120584988628020534948620020FD
:1022F000C8610846C068012802D15349C86102E09C
:1023000002205149C8615A484F49C86006E247480F
:10231000D0F89800012818D1454800684549086060
:102320004348406848604248806888604048C068C8
:1023300008613F48006948613D48406988613C4800
:102340008069C8603A48C06908623848D0F8980087
:10235000022818D13648006A364908603448406A75
:1023600048603348806A88603148C06A08613048F4
:10237000006B48612E48406B88612D48806BC860B7
:102380002B48C06B08622948D0F8980003281ED15A
:102390002748006C274908602548406C486004E0E5
:1023A000B4E1ACE1A4E10CE174E02148806C886008
:1023B0001F48C06C08611E48006D48611C48406D94
:1023C00088611B48806DC8601948C06D0862174855
:1023D000D0F89800042818D11548006E15490860F7
:1023E0001348406E48601248806E88601048C06E86
:1023F00008610F48006F48610D48406F88610C48C4
:10240000806FC8600A48C06F0862022005F0B0FF04
:102410000948C06B084908640846C06801282BD1E8
:10242000144804498862012048622AE0885D01203E
:1024300074630120E004002008000020CD4701085B
:10244000DD470108CB45010818050020B944010803
:10245000334301083B2F0108C52F0108EB31010868
:10246000B9360108333A0108852F0108C33B01083A
:10247000FF3D0108ED470108F948FA49886200204C
:102480004862F84812F07FFB12F0AFFA0120F549DC
:10249000C86243E1F448D0F89800012818D1F34805
:1024A0000068F0490860F14840684860EF4880687B
:1024B0008860EE48C0680861EC4800694861EB48F4
:1024C00040698861E9488069C860E848C069086275
:1024D000E548D0F89800022818D1E448006AE1499C
:1024E0000860E248406A4860E048806A8860DF48E7
:1024F000C06A0861DD48006B4861DC48406B886158
:10250000DA48806BC860D948C06B0862D648D0F8FA
:102510009800032818D1D548006CD2490860D348E8
:10252000406C4860D148806C8860D048C06C0861BD
:10253000CE48006D4861CD48406D8861CB48806DC4
:10254000C860CA48C06D0862C748D0F8980004281F
:1025500018D1C648006EC3490860C448406E486040
:10256000C248806E8860C148C06E0861BF48006F75
:102570004861BE48406F8861BC48806FC860BB48F6
:10258000C06F0862022005F0F3FEB948C06BB8497D
:1025900008640846C068012805D1B648B149886278
:1025A0000120486204E0AE48AE49886200204862DB
:1025B000AC4812F0E8FA12F018FA0120A949C862F2
:1025C000ACE0A948D0F89800012818D1A7480068C5
:1025D000A4490860A54840684860A44880688860AD
:1025E000A248C0680861A148006948619F484069E5
:1025F00088619E488069C8609C48C06908629A48A2
:10260000D0F89800022818D19848006A95490860C7
:102610009648406A48609548806A88609348C06AD6
:1026200008619248006B48619048406B88618F4810
:10263000806BC8608D48C06B08628B48D0F89800EA
:10264000032818D18948006C864908608748406C87
:1026500048608648806C88608448C06C0861834804
:10266000006D48618148406D88618048806DC86018
:102670007E48C06D08627C48D0F89800042818D1C4
:102680007A48006E774908607848406E486077481D
:10269000806E88607548C06E08617448006F48613C
:1026A0007248406F88617148806FC8606F48C06F22
:1026B0000862022005F05CFE6D48C06B6C4908643E
:1026C0000846C068012805D16A4866498862012029
:1026D000486204E0624863498862002048626148B9
:1026E00012F051FA12F081F901205E49C86215E03A
:1026F000022005F03DFE60486049C8600EE00220FF
:1027000005F036FE5E485D49C86007E0022005F02E
:102710002FFE5C485949C86000E000BF00BFE9E0F7
:10272000606850490860A0684860E0688860206977
:10273000086160694861A0698861E069C860206AD1
:1027400008626088012806D002281ED0042836D0EE
:10275000082868D14DE04348006844490860414872
:10276000406848603F48806888603E480069C860AB
:102770003C48406908613B48806948613948C06805
:1027800088613848006AC8614EE0364800683749B9
:10279000086234484068486232488068886231483C
:1027A0000069C8622F48406908632E488069486301
:1027B0002C48C06888632B48006AC86334E0294805
:1027C00000682A49086427484068486425488068AA
:1027D000886424480069C864224840690865214823
:1027E000806948651F48C06888651E48006AC865DA
:1027F0001AE01C4800681D4908661A484068486687
:1028000018488068886617480069C8661548406996
:1028100008671448806948671248C068886711488B
:10282000006AC86700E000BF00BF63E02688012E91
:1028300006D0022E2AD0042E38D0082E56D145E0DC
:1028400054F8020F1049086060684860A06888600A
:10285000E068C860208AA41E48610020086146E044
:10286000FD470108E0040020885D01207463012019
:1028700008000020ED47010821420108180500204A
:102880000F4101089D3F0108340D002054F8020F4C
:10289000FE49086060684860A0688860E068C860B9
:1028A000208AA41E48610020086120E054F8020F2D
:1028B000F749086060684860A0688860E068C860A0
:1028C000208AA41E48610020086110E054F8020F1D
:1028D000F049086060684860A0688860E068C86087
:1028E000208AA41E48610020086100E000BF00BFEC
:1028F00000E000BF00BFBDE8F08710B50346002030
:10290000E549E64A00BF012B06D0022B28D0042B54
:102910004AD0082B7ED16BE08C6A012C07D08C6AE0
:10292000022C04D091F83C4004F001041CB140F0AA
:10293000100040F02000DA4CA46B012C05D1D2F835
:10294000C440012C01D140F48010D54CE46B012C23
:1029500005D1D2F8C840012C01D140F400106EE03E
:10296000CC6A012C07D0CC6A022C04D091F83C40F0
:1029700004F001041CB140F0100040F02000C84CED
:10298000A46B022C05D1D2F8C440012C01D140F433
:102990008010C34CE46B022C05D1D2F8C840012C46
:1029A00001D140F400104AE00C6B012C07D00C6BF5
:1029B000022C04D091F83C4004F001041CB140F01A
:1029C000100040F02000B64CA46B042C05D1D2F8C6
:1029D000C440012C01D140F48010B14CE46B042CB4
:1029E00005D1D2F8C840012C01D140F4001026E0F6
:1029F0004C6B012C07D04C6B022C04D091F83C405E
:102A000004F001041CB140F0100040F02000A44C80
:102A1000A46B00E012E0082C05D1D2F8C440012CD0
:102A200001D140F480109E4CE46B082C05D1D2F803
:102A3000C840012C01D140F4001000E000BF00BFED
:102A400010BD30B58FB00446934D50209549487164
:102A50000C70200A4870382088700020C8708120CF
:102A6000087140F24440844204D10020C870012023
:102A7000887008710120ADF804008B480068CDF81B
:102A800006000020CDF80A000120FFF736FFCDF840
:102A90000E000220ADF81200844800680590002066
:102AA00006900220FFF729FF07900420ADF82000D0
:102AB0007D484068CDF822000020CDF82600042093
:102AC000FFF71BFFCDF82A000820ADF82E0077484D
:102AD00040680C9000200D900820FFF70EFF0E902C
:102AE0000621704805F039FE40F24440844203D08C
:102AF000382101A805F031FE0FB030BD2DE9F04FAF
:102B00002DED048BABB000200B909FED690AB0EE69
:102B1000409A0A909FED670AF0EE409ADFF87CB188
:102B20005D480890644809906448008880B212901B
:102B300014A81390851D614CA41D00211398C17029
:102B400001211398017150211398417100201190B7
:102B5000109040F223521299881A91427CD031DCB5
:102B600040F21322A1EB0200914276D014DC12292C
:102B700074D007DC022972D0052958D0112942F0FF
:102B8000A785D9E0142901F00C85152902F04985A3
:102B9000B1F5047FF3D116E140F27F22811A904211
:102BA0006ED008DC10286CD0A0F23220002869D04A
:102BB0000B28E4D1F9E36E2965D08E2964D08F29E2
:102BC000DDD1F3E3B0F56C7F00F0FE8619DC40F256
:102BD0006312A0EB0201904257D006DC012879D0A5
:102BE000032878D00428CAD1FEE3A1F23A210029B3
:102BF00001F04383012901F045831029BFD101F081
:102C000058BB40F2B632811A904201F0A48009DC30
:102C1000A0F2B13000287DD0012800F0C987032838
:102C2000ADD1FDE3072976D00929A8D1ABE0062173
:102C3000139801805421139881701398007940F003
:102C400080011398017154221D49284615F072FC29
:102C50001C480068286003E002E1C8E078E096E0E4
:102C600019A0007885F8420017A04178432041550B
:102C700015A0C1784420415513A0017945202BE0CF
:102C800080E051E0FEE3EAE091E36EE04C0D0020CD
:102C9000640D00207C0D0020E0060020F45B012084
:102CA000080000204D00002040070020C008002040
:102CB0000000803D0000000054630120BC11002092
:102CC0006C0400200860012031303A33393A313346
:102CD000000000003CE3FCE34155FAA00079202805
:102CE00001D1302001E0F7A0007946214855F5A038
:102CF000417947204155F3A0017848204155F1A082
:102D0000417849204155EFA081784A204155002162
:102D10004B2001E0FAE346E04155012011900220EA
:102D2000EB49086002F0D4BC0120EA49C1F89800E0
:102D30000020C1F89C00F5E70898406A20F4806004
:102D400000F5806008994862002108984164E9E72D
:102D50000898406A20F48061089841620898406AA7
:102D600020F4006108984162DCE70AF070FAFDF790
:102D70002FFB012005F025FC07F059FD022005F08E
:102D800020FCCFE700BF002108984164CAE7042077
:102D9000CF490860002011900898406A20F4006133
:102DA00008984162BEE70898406A20F4006000F588
:102DB00000600899486240F6E100FFF742FE0021FA
:102DC00008984164AEE7C44880780E900E980128B8
:102DD00006D0022805D0042804D0082804D102E037
:102DE00003E002E001E000E000BF00BF9AE7BA485C
:102DF00080780E900E9800F0010050B1B7488068BE
:102E0000012802D1CBF8CC000EE00020CBF8CC009A
:102E10000AE0B2488068012803D10020CBF8CC003A
:102E200002E00120CBF8CC000E9800F0020050B177
:102E3000AA48C068012802D1CBF8D0000EE00020DB
:102E4000CBF8D0000AE0A548C068012803D10020D3
:102E5000CBF8D00002E00120CBF8D00062E761E7B8
:102E600060899E498863A089C86360880861E0889A
:102E70004861A08888602089C860084600691328D6
:102E80007ED2DFE800F00A161D364F7D7D7D7D7D08
:102E9000656C87A0BDE4F3F2F100012005F093FA20
:102EA00000208F4948628F48086000208B490863E2
:102EB00001E1012005F087FA8B4889490860FAE0B2
:102EC000012005F080FA0220844988610020086210
:102ED00008468068012802D18149086102E0022089
:102EE0007F49086181487E49086000207B4908636A
:102EF000E1E0012005F067FA0420784988610020AC
:102F0000086208468068012802D17549086102E01C
:102F100002207349086176487149086000206F49B2
:102F20000863C8E0012005F04EFA08206B4988616B
:102F30000020086208468068012802D168490861BB
:102F400002E00220664908616A4865490860B2E00B
:102F5000022005F038FA684861498860ABE0022039
:102F600005F031FA01205E49486220205B49086281
:102F70000020886108468068012804D1584900E093
:102F800098E0486102E00220554948615B48544995
:102F9000886090E0022005F016FA0120504948624E
:102FA00080204E4908620020886108468068012818
:102FB00002D14B49486102E002204949486150482A
:102FC0004749886077E0022005F0FDF943488068B2
:102FD000012805D14B484C4988620120486204E031
:102FE0004A484949886200204862474811F0CBFDB1
:102FF00011F0FBFC0020444908620120C8625AE03D
:10300000022005F0E0F9404800693F4908600846A1
:103010004069404248600846806988602F4880685F
:10302000012804D1374888620120486204E037480B
:103030003549886200204862334811F0A4FD11F040
:10304000D4FC0020304908620120C86233E002202D
:1030500005F0B9F921488068012808D129482A4992
:1030600088620120486207E01DE015E00DE0274876
:103070002549886200204862234811F084FD11F040
:10308000B4FC01202049C86215E0022005F09BF93C
:103090001F48134988600EE0022005F094F91D488E
:1030A0000F49886007E0022005F08DF91A480C49A5
:1030B000886000E000BF00BF08484069132873D251
:1030C0002CE000004F63742020352032303138006E
:1030D000A45F012004060020BC110020080000208D
:1030E000180500203B2F0108A32F01080B30010811
:1030F000DD330108BB390108632F0108AB3A010831
:10310000F33C0108CD470108E0040020DD47010839
:10311000CB450108B944010833430108DFE800F05A
:103120000A151C354F4444444444656C859EBBE2FB
:10313000F1F0EF00012005F01BF9FE48FE49486060
:1031400000208862FD49486300E1012005F010F984
:10315000FB48F9494860F9E0012005F009F902202F
:10316000F649C861002048620846C068012802D1BB
:10317000F149886102E00220EF498861F148EE4997
:1031800048600020ED494863E0E0012005F0F0F8D8
:103190000420EA49C861002048620846C068012846
:1031A00003D1E549886103E0CFE00220E24988616C
:1031B000E548E14948600020E0494863C6E0012055
:1031C00005F0D6F80820DD49C861002048620846AD
:1031D000C068012802D1D849886102E00220D6499E
:1031E0008861DA48D4494860B0E0022005F0C0F8B0
:1031F000D748D149C860A9E0022005F0B9F80120FC
:10320000CD4988622020CD4948620020C861084627
:10321000C068012802D1C849C86102E00220C6493D
:10322000C861CC48C449C86090E0022005F0A0F80D
:103230000120C14988628020C04948620020C861DD
:103240000846C068012802D1BB49C86102E00220DB
:10325000B949C861C048B849C86077E0022005F0A4
:1032600087F8B648C068012805D1BC48BC498862C7
:103270000120486204E0BB48B949886200204862E6
:10328000B74811F080FC11F0B0FB0020B44908628F
:103290000120C8625AE0022005F06AF8B0480069CF
:1032A000AF49086008464069404248600846806966
:1032B0008860A248C068012804D1A848886201201B
:1032C000486204E0A748A649886200204862A448F2
:1032D00011F059FC11F089FB0020A149086201207E
:1032E000C86233E0022005F043F89448C068012822
:1032F00008D19A489A4988620120486207E01DE097
:1033000015E00DE09748964988620020486294488D
:1033100011F039FC11F069FB01209149C86215E0F8
:10332000022005F025F890488349C8600EE002208D
:1033300005F01EF88D488049C86007E0022005F0BE
:1033400017F88B487C49C86000E000BF00BFE9E483
:1033500040F225511398016016211398817013983B
:10336000007940F08001139801717448008F288023
:103370007248008F68817148808FA8816F48008AE9
:1033800068806E48808AE8806C480089A8806B4815
:10339000808928810020E881002105F10E00298222
:1033A0006982A98201201190BCE431E14EE07148AC
:1033B00080780E906088401ECBF820006068CBF8C3
:1033C0006C00A068CBF87400A089CBF87C000E9844
:1033D000012808D1D4F80E106748C0F8D011D4F8ED
:1033E0001210C0F8D41100E0CEE00E98022808D1E7
:1033F000D4F80E106048C0F8D811D4F81210C0F8F4
:10340000DC110E98042808D1D4F80E105A48C0F8E0
:10341000E011D4F81210C0F8E4110E98012800E071
:1034200078E208D1D4F80E105348C0F8E811D4F867
:103430001210C0F8EC117F21DBF86C0090FBF1F06A
:103440004E490867E08A4C4908606BE440F222511B
:10345000139801602421139881701398007940F02B
:10346000800113980171434880780E900E9828804F
:10347000BBF82000401E6880DBF86C006860DBF859
:10348000740000E0BCE0A860BBF87C00A8813A486A
:103490000088E8820E98012809D13748D0F8D00179
:1034A000C5F80E003448D0F8D401C5F80E000E98C7
:1034B000022809D13048D0F8D801C5F80E002E48AE
:1034C000D0F8DC01C5F80E000E9804280BD12A486C
:1034D00000E01CE0D0F8E001C5F80E002648D0F866
:1034E000E401C5F80E000E98082809D12248D0F84A
:1034F000D801C5F80E002048D0F8D801C5F80E0054
:10350000002068832883012011900BE488E054F8A0
:10351000020F1349086060684860A0688860A0696D
:10352000C860E06808612069486160698861A069D5
:10353000C86125E03B2F0108180500200800002085
:10354000C52F0108EB310108B9360108333A0108EB
:10355000852F0108C33B0108FF3D0108ED47010825
:10356000E0040020FD470108214201080F41010845
:103570009D3F0108BC110020805B01200406002053
:10358000E069A41E08620DE44FF4A5611398016080
:103590002E21139881701398007940F080011398C0
:1035A00001710120AD1C25F8020CFE48006828605E
:1035B000FC4840686860FB488068A860F948C068BB
:1035C000A861F848006AE861F648006944F80E0FFF
:1035D000F44840696060F3488069A060F148C069C0
:1035E000A0600E3C00202884AD1E002105F12200C1
:1035F000A984E98429856985A985012011902DE494
:103600002688D4F802000C90E7490C98086025E45D
:103610002688D4F802000C90E3490C9848601DE419
:10362000E248D0F87401082804D0E148D0F87401C9
:10363000082806D10020DD49C1F87401DC49C1F831
:1036400074012688D4F802000C90DA48D0F898006B
:1036500007287DD2DFE800F004052E5781AAFD007F
:1036600054E1D548806A28B100BF00200AF040FD2F
:103670000028FAD106F00100D8B10020CB49C1F8EA
:1036800014010C988860084680680968401AC74988
:10369000C1F8EC00012100200AF02BFB8146B9F5AE
:1036A000807F03D10020C449886202E00120C24922
:1036B00088622BE1C048C06A28B100BF00200AF030
:1036C00036FD0028FAD106F00200D8B10020B84932
:1036D000C1F814010C988860084680680968401A8F
:1036E000B349C1F8EC00012100200AF08DF98146B0
:1036F000B9F5807F03D10021AF48C16202E001210A
:10370000AD48C16202E1AC48006B28B100BF0120A6
:103710000AF0EEFC0028FAD106F00400E0B1012026
:10372000A249C1F814010C98C8600846C0684968ED
:10373000411A9E48C0F8F010012108460AF0D9FA53
:103740008146B9F5807F04D100219B48016303E0E5
:10375000DBE0012198480163D8E09748406B28B12D
:1037600000BF00200AF0E3FC0028FAD106F00800B0
:10377000D8B101208E49C1F814010C98C8600846E0
:10378000C0684968411A8A48C0F8F010012108460B
:103790000AF03AF98146B9F5807F03D100218648C5
:1037A000416302E0012184484163AFE08248806ABE
:1037B00040B106F0010028B100BF00200AF098FCDB
:1037C0000028FAD17C48C06A40B106F0020028B156
:1037D00000BF00200AF0ABFC0028FAD106F001007F
:1037E000D8B100207149C1F814010C9888600846CE
:1037F00080680968401A6D49C1F8EC000121002079
:103800000AF077FA8146B9F5807F03D100206A4932
:10381000886202E001206849886206F00200E0B197
:1038200000206349C1F814010C988860084680683C
:103830000968401A5E49C1F8EC00012100200AF035
:10384000E3F88146B9F5807F04D100215A48C1626E
:1038500003E003E001215848C16257E05648006B7D
:1038600040B106F0040028B100BF01200AF040FC7E
:103870000028FAD15048406B40B106F0080028B14A
:1038800000BF01200AF053FC0028FAD106F0040022
:10389000D8B101204549C1F814010C98C860084608
:1038A000C0684968411A4148C0F8F0100121084633
:1038B0000AF01FFA8146B9F5807F03D100213E4806
:1038C000016302E001213C48016306F00800D8B121
:1038D00001203749C1F814010C98C8600846C06837
:1038E0004968411A3248C0F8F010012108460AF030
:1038F0008BF88146B9F5807F03D100212E484163C2
:1039000002E001212C48416300E000BF00BF00201D
:1039100011901CE52948867806F0010070B100205E
:10392000224908642448806A28B100BF00200AF0B8
:10393000DFFB0028FAD10120FDF779F806F002003C
:1039400070B100201A4908641B48C06A28B100BF42
:1039500000200AF0ECFB0028FAD10220FDF767F8FE
:1039600006F0040070B10021104841641248006B59
:1039700028B100BF01200AF0BBFB0028FAD10420C7
:10398000FDF755F806F00800E8B100210848416449
:103990000948406B28B100BF01200AF0C8FB00288D
:1039A000FAD10DE0E00400200000002040070020D4
:1039B000C0080020885D0120E0060020BC11002026
:1039C0000820FDF734F8C2E42688D4F802000C90F1
:1039D000FE48D0F8980007287ED2DFE800F0040502
:1039E00025456586CB00DFE0F948806A28B100BF35
:1039F00000200AF07DFB0028FAD106F0010090B10A
:103A0000F4490C98C1F8EC00012100200AF071F98A
:103A10008146B9F5807F03D10020ED49886202E03C
:103A20000120EB498862BFE0E948C06A28B100BFC5
:103A300000200AF07CFB0028FAD106F0020090B1C9
:103A4000E5490C98C1F8EC000121002009F0DCFFE9
:103A50008146B9F5807F03D10021DD48C16202E0D3
:103A60000121DB48C1629FE0D948006B28B100BF4B
:103A700001200AF03DFB0028FAD106F0040090B1C5
:103A8000D4490C98C1F8F000012108460AF031F938
:103A90008146B9F5807F03D10021CD48016302E062
:103AA0000121CB4801637FE0C948406B28B100BFCA
:103AB00000200AF03CFB0028FAD106F0080098B17B
:103AC000C5490C98C1F8F0000121084609F09CFF97
:103AD000B9F5807F05D100E065E00021BC48416375
:103AE00002E00121BA4841635EE0B948806A40B112
:103AF00006F0010028B100BF00200AF0F9FA002802
:103B0000FAD1B348C06A40B106F0020028B100BF44
:103B100000200AF00CFB0028FAD106F0010090B159
:103B2000AC490C98C1F8EC00012100200AF0E1F842
:103B30008146B9F5807F03D10020A549886202E063
:103B40000120A349886206F0020090B1A2490C98B6
:103B5000C1F8EC000121002009F056FF8146B9F5BB
:103B6000807F03D100219A48C16202E00121984878
:103B7000C16219E09648006B40B106F0040028B11C
:103B800000BF01200AF0B4FA0028FAD19048406B37
:103B900040B106F0080028B100BF01200AF0C7FAC2
:103BA0000028FAD100E000BF00BF002011904CE4D3
:103BB0008A48C77886788548D0F89800072874D254
:103BC000DFE800F004051D354D659500BFE006F007
:103BD000010098B1012F08D181487E49C1F8EC005D
:103BE000012100200AF085F808E07D48404279492B
:103BF000C1F8EC00012100200AF07BF8A7E006F0F4
:103C0000020098B1012F08D175487349C1F8EC0042
:103C10000121002009F0F8FE08E0714840426E4999
:103C2000C1F8EC000121002009F0EEFE8FE006F063
:103C3000040098B1012F08D169496648C0F8F01016
:103C4000012108460AF055F808E0654949426148F3
:103C5000C0F8F010012108460AF04BF877E006F0B2
:103C6000080098B1012F08D15D495B48C0F8F010F9
:103C70000121002009F0C8FE08E059484042564999
:103C8000C1F8EC000121002009F0BEFE5FE006F063
:103C90000100A0B1012F09D151484E49C1F8EC00F3
:103CA000012100200AF025F809E04FE04C4840428D
:103CB0004849C1F8EC00012100200AF01AF806F08A
:103CC000020098B1012F08D145484349C1F8EC00E2
:103CD0000121084609F098FE08E0414840423E496B
:103CE000C1F8EC000121084609F08EFE2FE006F035
:103CF000040098B1012F08D139493648C0F8F010B6
:103D00000121084609F0F5FF08E0354949423148EC
:103D1000C0F8F0100121084609F0EBFF06F008009A
:103D200098B1012F08D12E492B48C0F8F01001217D
:103D3000084609F069FE08E0294840422649C1F8D2
:103D4000EC000121084609F05FFE00E000BF00BF63
:103D50000020119017E421488678C7781B48D0F8D6
:103D60009800072878D2DFE800F004055EABF9E898
:103D7000E7007EE21648806A28B100BF00200AF002
:103D8000B7F90028FAD106F0010058B31148006FC6
:103D900002282ED1012F06D10E48D0F880000D49FF
:103DA000C1F8EC0008E0022F06D10A48D0F88800DC
:103DB00040420849C1F8EC000221002009F099FFB7
:103DC0008146B9F5807F11D100200CE0885D01208B
:103DD000E006002040070020C0080020BC110020A1
:103DE00078FDFF7F1EE0F649886202E00220F44978
:103DF0008862F448006F012814D1012F04D1F248E1
:103E0000F049C1F8EC0006E0022F04D1EE48404230
:103E1000EC49C1F8EC000221002009F06AFF022001
:103E2000E749886225E2E648C06A28B100BF002061
:103E30000AF07DF90028FAD106F0020080B3E348C9
:103E4000006F022821D1012F07D1E048D0F880006F
:103E5000DE49C1F8EC0009E00AE2022F06D1DB4896
:103E6000D0F888004042D949C1F8EC000221002076
:103E700009F0CAFD8146B9F5807F03D10021D04801
:103E8000C16202E00221CE48C162D048006F012821
:103E900015D1012F05D1CC48CC49C1F8EC0007E081
:103EA0000DE0022F04D1C8484042C849C1F8EC00D7
:103EB0000221002009F0A8FD0221C148C162D8E119
:103EC000BF48006B28B100BF01200AF011F900289B
:103ED000FAD106F0040070B3BA48406F02281FD12F
:103EE000012F05D1B748D0F88410C0F8F01008E0D1
:103EF000022F06D1B348D0F88C004142B148C0F837
:103F0000F0100221012009F0F4FE8146B9F5807F0E
:103F100003D10021AA48016302E00221A8480163FD
:103F2000A848406F012818D1012F08D1A649A548FB
:103F3000C0F8F0100AE010E0F8E05AE00EE0022FBE
:103F400004D1A14949429F48C0F8F0100221012044
:103F500009F0CFFE02219A4801638AE19848406B3C
:103F600028B100BF01200AF0E2F80028FAD106F0DB
:103F7000080070B39548406F02281FD1012F05D16A
:103F80009248D0F88410C0F8F01008E0022F06D153
:103F90008E48D0F88C0041428C48C0F8F0100221C5
:103FA000012009F031FD8146B9F5807F03D1002160
:103FB0008348416302E00221814841638348406FA6
:103FC000012815D1012F05D17F498048C0F8F01094
:103FD00007E00DE0022F04D17B4949427B48C0F83D
:103FE000F0100221012009F00FFD02217448416305
:103FF0003FE17348806A40B106F0010028B100BF7C
:1040000000200AF075F80028FAD16D48C06A40B166
:1040100006F0020028B100BF00200AF088F800284E
:10402000FAD106F0010078B36648006F022820D16B
:10403000012F06D16348D0F880006249C1F8EC0036
:1040400008E0022F06D15F48D0F8880040425D4961
:10405000C1F8EC000221002009F04BFE8146B9F5C1
:10406000807F03D100205649886202E00220544933
:1040700088625448006F012815D1012F05D152489C
:104080005049C1F8EC0007E00DE0022F04D14E4882
:1040900040424C49C1F8EC000221002009F029FE01
:1040A00002204749886206F0020078B34748006F53
:1040B000022820D1012F06D14448D0F8800043497E
:1040C000C1F8EC0008E0022F06D14048D0F8880083
:1040D00040423E49C1F8EC000221002009F094FC66
:1040E0008146B9F5807F03D100213548C16202E0E5
:1040F00002213348C1623548006F012815D1012FD4
:1041000005D131483149C1F8EC0007E00DE0022F3C
:1041100004D12D4840422D49C1F8EC000221002075
:1041200009F072FC02212648C162A2E02448006B1B
:1041300040B106F0040028B100BF012009F0D8FF0B
:104140000028FAD11E48406B40B106F0080028B1A3
:1041500000BF012009F0EBFF0028FAD106F00400AF
:10416000B0B31848406F02281FD1012F05D1154860
:10417000D0F88410C0F8F01008E0022F06D11148E2
:10418000D0F88C0041420F48C0F8F0100221012005
:1041900009F0AFFD8146B9F5807F03D100210848C1
:1041A000016302E00221064801630648406F0128CE
:1041B0001CD1012F0DD104490248C0F8F0100EE0C7
:1041C000E00600204007002078FDFF7FC0080020A7
:1041D0000CE0022F03D1FE49FE48C0F8F010022186
:1041E000012009F086FD0221FB48016306F008006A
:1041F00078B3FA48406F02281FD1012F05D1F74844
:10420000D0F88410C0F8F01008E0022F06D1F3486F
:10421000D0F88C004142F148C0F8F0100221012092
:1042200009F0F2FB8146B9F5807F03D10021EA480D
:10423000416302E00221E8484163E848406F0128F9
:1042400015D1012F06D1E2494942E448C0F8F010E7
:1042500006E00CE0022F03D1DD49E048C0F8F01081
:104260000221012009F0D0FB0221DB48416300E07C
:1042700000BF00BF0020119099E4FDF7C0F80020B6
:10428000119094E42846FCF71CFC1090C22113986E
:1042900001700821139841701098C1B21398817071
:1042A0001398007940F0800113980171012011905A
:1042B0007DE420881290129819287DD008DC072808
:1042C0001BD00B2879D0152878D0172877D13BE15F
:1042D0002B2804D02D2848D0302870D1DDE0C048EC
:1042E000D0F89400BF494861BD48D0F89810BD4847
:1042F00081614AF65521016251E1B648D0F8D410E7
:10430000B8488162B348816BB6488163B148816C1B
:10431000B4488164B148D0F8D410B248C162AF4803
:10432000816BB048C163AD48816CAE48C164A94897
:10433000D0F8D810AB480163A648C16BA948016406
:10434000A448C16CA7480165A448D0F8D810A54876
:104350004163A248C16BA3484164A048C16CA14815
:1043600041654AF65521816519E19A48016F9D48DA
:1043700001679A48016F9B4841679648416F994889
:1043800081679648416F9748C1679248D0F880107E
:104390009448C0F880109148D0F880109148C0F837
:1043A00084108C48D0F884108E48C0F888108B4850
:1043B000D0F884108B4803E0EFE048E07EE0EDE0C9
:1043C000C0F88C108348D0F888108648C0F8901048
:1043D0008248D0F888108348C0F894107D48D0F8FF
:1043E0008C108048C0F898107C48D0F88C107D481C
:1043F000C0F89C107748016E7A48C0F8A010774842
:10440000016E7848C0F8A4107248416E7548C0F833
:10441000A8107248416E7348C0F8AC106D48816EA8
:104420007048C0F8B0106D48816E6E48C0F8B41086
:104430006848C16E6B48C0F8B8106848C16E6948DA
:10444000C0F8BC104AF65521C0F8D410A7E0654862
:10445000DBF88C10C0F81C11DBF89010C0F82011AC
:10446000DBF89410C0F83411DBF89810C0F838115C
:10447000DBF89C10C0F84C11DBF8A010C0F850110C
:10448000DBF8A410C0F86411DBF8A810C0F86811BC
:104490004AF65521C0F8181181E05348D0F8BC11F4
:1044A0005048C0F8E4105048D0F8C0114D48C0F84A
:1044B000E8104AF65521C0F8EC1070E04A48D0F8F0
:1044C000D0114848C0F8D0114748D0F8D411454819
:1044D000C0F8D4114448D0F8D8114248C0F8D811D7
:1044E0004148D0F8DC113F48C0F8DC113E48D0F814
:1044F000E0113C48C0F8E0113B48D0F8E4113948DD
:10450000C0F8E4113848D0F8E8113648C0F8E8118E
:104510003548D0F8EC113348C0F8EC11DBF87010D6
:10452000C0F8F011DBF82010C0F8F411DBF87C10B3
:10453000C0F8F8112C4801682A48C0F8FC114AF666
:104540005521C0F800122AE02848008F81B2254882
:10455000A0F834122548808F81B22248A0F8361284
:104560002248008A81B21F48A0F838121F48808A6A
:1045700081B21C48A0F83C121C48008981B219483D
:10458000A0F83A121948808981B21648A0F83E1264
:104590004AF65521C0F8401201E000E000BF00BF1C
:1045A0006AE620680790D4F80480D4F808A0E06890
:1045B00006902069059060690490A0690390E06905
:1045C0000290206A0190606A009007982E280FE000
:1045D0008802008040070020E0060020C00800207C
:1045E000885D012008600120805B01200800002018
:1045F00072D032DCA0F102002C2881F00F80DFE8BD
:1046000010F058010D089B000D080D080D080D084D
:104610000D080D080D08500154010D08B6044501A0
:104620004D0149010D080D080D080D080D080D0874
:104630000D080D080D080D080D080D080D08CA0419
:104640005E01E303F10316042C04300436048302F4
:104650008B043D01D403D70341013C287BD00ADC05
:10466000A0F12F000A28C8D2DFE800F0F8F7F6F52D
:10467000F4F3F2F1F03740F22352811A904269D0FC
:1046800012DCB0F5C87F00F0AD8705DC3D286FD0A7
:104690003E2840F0C387B9E0A0F21320B0B3A0F2E7
:1046A000ED200028F5D1FDE3032971D0A1F26310BC
:1046B00028B1A0F2512050B30228EAD128E008F036
:1046C000C6FDFBF785FE012003F07BFF06F0AFF887
:1046D000022003F076FF48E36DE3FC48C0F8BC819C
:1046E000D0F8BC0110B90BF0CBFC0EE0F748D0F8C5
:1046F000BC01012802D10BF0C3FC06E0F348D0F85E
:10470000BC01022801D110F0A0F8E4E793E08AE0B0
:104710004746012F04D1EE48EE49C1F8EC0006E00F
:10472000022F04D1EA484042EA49C1F8EC000221D4
:10473000002009F0DEFACEE70021E748C0F8D410E7
:10474000012003F03EFF06F072F8022003F039FF6B
:10475000C1E700E0F4E3B8F1010F0AD0B8F1020FAD
:1047600017D0B8F1040F23D0B8F1080F3ED12EE0D6
:104770003FE0DA48C0F800A0D8490698486005989C
:1047800088600498C86003984861002008612EE0A2
:10479000FEE3D348C0F800A0D149069848600598C8
:1047A00088600498C86003984861002008611EE092
:1047B000CC48C0F800A0CB490698486005988860AE
:1047C0000498C86003984861002008610FE0C6485B
:1047D000C0F800A0C449069848600598886004980D
:1047E000C860039848610020086100E000BF00BF76
:1047F00071E7B848C0F81880BC48C0F818A0B5499F
:104800000698C861B9490598C86164E7B148C0F81D
:104810007881C0F87CA1B5490698C1F8780105985F
:10482000C1F87C0157E70421002009F062FA012059
:10483000FCF7FDF84FE7CDF83880DDF8388008F058
:10484000010060B10120CBF8CC000BE09EE28DE2CC
:10485000FDE193E185E177E169E15BE1B0E2002010
:10486000CBF8CC000E9800F0020018B10120CBF874
:10487000D00002E00020CBF8D0002CE74046FBF748
:1048800059FD28E740460BF049FC24E79848C0F85A
:10489000408120E79748C0F800801CE70BF0B8F98A
:1048A00019E76068CBF84C0015E76068CBF8480062
:1048B00011E7606888490860002011900BE74FF409
:1048C00000608D49886140108861B8F57A7F2BD1EE
:1048D000400488614014886100207E49C1F81401B9
:1048E0000846D0F81401854948601120086001206D
:1048F00048610F20C8610846C0F834A00698886057
:1049000000207A49C1F814010846D0F814017C4906
:10491000486011200860012048610F20C8610846E6
:10492000C0F834A00698886018F57A7F2DD14FF032
:104930000060714988614014886100206549C1F8B0
:1049400014010846D0F814016C4948601220086030
:10495000012048610520C8610846C0F834A00698C7
:10496000886000206149C1F814010846D0F814019C
:104970006349486012200860012048610520C86131
:104980000846C0F834A006988860B8F5FA6F0BD1D5
:1049900011205B490860012048610F20C86108466A
:1049A000C0F834A00698886018F5FA6F0BD1122071
:1049B00053490860012048610520C8610846C0F8D5
:1049C00034A00698886040F6B83080452DD14FF469
:1049D000006049498861C003886101203D49C1F8F0
:1049E00014010846D0F814014449486011200860B9
:1049F000012048610F20C8610846C0F834A006981D
:104A0000886001203949C1F814010846D0F8140122
:104A10003B49486011200860012048610F20C861AF
:104A20000846C0F834A006988860364880452DD1E5
:104A30004FF4006030498861C00388610120254936
:104A4000C1F814010846D0F814012C49486012201E
:104A50000860012048610F20C8610846C0F834A0F2
:104A60000698886001202149C1F814010846D0F851
:104A700014012349486012200860012048610F207A
:104A8000C8610846C0F834A006988860B8F57A6F07
:104A90000BD111201A490860012048610F20C8611C
:104AA0000846C0F834A00698886018F57A6F0BD1D4
:104AB000122013490860012048610520C86108469A
:104AC000C0F834A00698886005E60000805B0120ED
:104AD00078FDFF7F4007002008600120340D002092
:104AE0004C0D0020640D00207C0D0020C00800202B
:104AF000400A0020281C0040001002403C0C00200E
:104B0000B80C002048F4FFFFFA48C0F83880C0F81D
:104B100048A0E0E5F848C0F83C80C0F840A0F6495D
:104B200006984864059888640498C864D3E5F248F8
:104B3000C0F85080C0F854A0EF49069888650598E1
:104B4000C86504980866C6E5EC48C0F83C80C0F823
:104B500040A0EA4906984864059888640498C864A7
:104B6000B9E5E648C0F85080C0F854A0E34906987B
:104B700088650598C86504980866ACE5DE48C16B91
:104B8000DF48C0F8F812DC48016CDD48C0F8FC12C0
:104B9000D948416CDA48C0F80013D748816CD8482E
:104BA000C0F80413D448C16CD548C0F80813D248E3
:104BB000016DD348C0F80C13CF48416DD048C0F800
:104BC0001013CD48816DCE48C0F81413CA48C16D8A
:104BD000CB48C0F81813C848016EC948C0F81C1368
:104BE000C648C16BC648C0F82013C448016CC4480D
:104BF000C0F82413C148416CC148C0F82813BF480D
:104C0000816CBF48C0F82C13BC48C16CBC48C0F8CC
:104C10003013BA48016DBA48C0F83413B748416D33
:104C2000B748C0F83813B548816DB548C0F83C1393
:104C3000B248C16DB248C0F84013B048016EB048E8
:104C4000C0F844134AF65521C0F8481343E505203F
:104C5000A949C8630A2008640F2048640A208864B0
:104C60000520C86408654865462088653C20C865FD
:104C7000142008660520A149C8630A2008640F2093
:104C800048640A2088640520C86408654865462091
:104C900088653C20C865142008669748C16B984811
:104CA000C0F8F8129448016C9548C0F8FC1292487C
:104CB000416C9348C0F800138F48816C9048C0F84D
:104CC00004138D48C16C8E48C0F808138A48016DE2
:104CD0008B48C0F80C138848416D8948C0F8101300
:104CE0008548816D8648C0F814138348C16D844897
:104CF000C0F818138048016E8148C0F81C137F4823
:104D0000C16B7F48C0F820137C48016C7C48C0F818
:104D100024137A48416C7A48C0F828137748816C8C
:104D20007748C0F82C137548C16C7548C0F830132B
:104D30007248016D7248C0F834137048416D704874
:104D4000C0F838136D48816D6D48C0F83C136B484E
:104D5000C16D6B48C0F840136848016E6848C0F8E0
:104D600044134AF65521C0F84813F9E30020654979
:104D7000C1F85801C1F85C01C1F86001C1F86401D3
:104D80000FF05DFE00200FF069FEE9E308F05FFA26
:104D90000DF092FCFBF71CFB012003F012FC05F068
:104DA00046FD022003F00DFCDAE30BF01AFAD7E31C
:104DB0000BF0F4F9D4E340460BF0E7FA0E90CFE3A2
:104DC0005148C0F8C881CBE3B8F57A7F02D14F488B
:104DD000C0F868A018F57A7F03D14FF0FF304B4937
:104DE0000860BDE3B8F57A7F03D14FF08060484991
:104DF0000860B8F5FA6F03D14FF480604449086049
:104E000040F6B830804502D101204049C866B8F567
:104E10007A6F03D101203C49C1F8B40041F28830D7
:104E2000804503D1AA203849C1F8CC00F7E3B8F196
:104E3000000F02D13548C0F87080B8F1010F02D1DF
:104E40003248C0F87080BAF1000F05DDBAF5FA6F8C
:104E500002DA2E48C0F808A0E1E32648C0F84481F1
:104E6000DDE32448C0F84C80C0F83CA0D7E3B8F19B
:104E7000010F0CD1BAF1000F03D14FF48030254956
:104E80008861BAF1010F02D1012022498861B8F18D
:104E9000020F0ED1BAF1000F03D14FF400301D49BB
:104EA000886100E075E3BAF1010F02D102201949CF
:104EB0008861B8F1030F0CD1BAF1000F03D14FF4A0
:104EC000802014498861BAF1010F02D104201149F0
:104ED0008861B8F1040F0CD1BAF1000F03D14FF47F
:104EE00000200C498861BAF1010F02D1082009495C
:104EF000886194E3400A00203C0C0020B80C00209C
:104F000008600120805B0120885D0120C00B00202B
:104F1000180C024000000240B8F1000F09D0B8F1AF
:104F2000010F0ED0B8F1020F11D0B8F1030F1BD151
:104F300014E04FF40010F84908604000086014E0E5
:104F400041E02020F4490860400408600DE04FF47F
:104F50000010F14908604020086006E02020EE497A
:104F600008604020086000E000BF00BF57E36168B0
:104F7000EA48C0F82C124AF65521C0F8301205F064
:104F800056FCE648D0F82C02CBF8C000002000E028
:104F900005E0119043E3E248A0F8D4803FE3606865
:104FA000E0490860A0684860E06888602069C860DF
:104FB00060690861A0694861E0698861206AC86128
:104FC000606A08622BE36068D7498863A068C86399
:104FD000E06808612069486160698860A069C8600C
:104FE000E069D2490860206A4860CF4800690D280E
:104FF00007D0CD4800690E2803D0CB4800690F28A0
:1050000012D1C948806BC8490864084640690D2818
:1050100007D0084640690E2803D0084640690F288B
:1050200002D10020C0494861BF4840690D2807D01F
:10503000BD4840690E2803D0BB4840690F2812D1F3
:10504000B948C06BB8490864084600690D2807D004
:10505000084600690E2803D0084600690F2802D1CF
:105060000020B1490861B0480069132873D2DFE815
:1050700000F00A13243A507272727272667790A925
:10508000CAF9F7F6F500012003F09DF90020A849C0
:105090004862A84808601AE1012003F094F9A24888
:1050A0008068012802D1A249086102E00020A049DD
:1050B0000861A1489E49086009E1012003F083F9D5
:1050C000022099498861002008620846806801280A
:1050D00002D19749086102E002209549086197488A
:1050E00093490860F3E0012003F06DF904208E4934
:1050F00088610020086208468068012802D18C4936
:10510000086102E002208A4908618D4888490860E8
:10511000DDE0012003F057F9082083498861002071
:10512000086208468068012802D18149086102E0CE
:1051300002207F49086183487D490860C7E002205A
:1051400003F041F980487A498860774880680128EF
:1051500002D1086103E0B9E0002075490861B6E0BA
:10516000022003F030F901207149486220206E4985
:1051700008620020886108468068012802D16C49D5
:10518000486102E002206A494861704868498860C5
:105190009DE0022003F017F9012065494862802054
:1051A000614908620020886108468068012802D1B0
:1051B0005F49486102E002205D49486164485C49FA
:1051C000886084E0022003F0FEF85748806B56495F
:1051D000086408468068012805D15E485149886204
:1051E0000120486204E05C484E4988620020486221
:1051F0004C480FF0C8FC0FF0F8FB0020494908624A
:105200000120C86263E0022003F0DDF84648806BAD
:1052100045490864434800694249086008464069B6
:10522000404248600846806988603F48806801289D
:1052300004D1484888620120486204E04648394960
:1052400088620020486237480FF09DFC0FF0CDFBCC
:105250000020344908620120C86238E02FE027E0CE
:105260001FE0FFE7022003F0AEF82F48806B2E49C5
:10527000086408468068012805D1364829498862B3
:105280000120486204E034482649886200204862D0
:1052900024480FF078FC0FF0A8FB01202149C862D8
:1052A00015E0022003F08FF82C48214988600EE0B9
:1052B000022003F088F82A481D49886007E0022090
:1052C00003F081F827481A49886000E000BF00BF5A
:1052D00015484069132873D2DFE800F00A134D63C4
:1052E0007A727272727290A0B9D2F8F6F5F4F30085
:1052F000012003F03DF80F480D4948600020886206
:1053000045E1012003F034F80748C06801282BD19B
:10531000074988612BE00000180402400860012062
:1053200004060020E0040020080000200000002007
:10533000180500203B2F0108A32F01080B3001089E
:10534000DD330108BB390108632F0108AB3A0108BE
:10535000F33C0108CD470108DD470108CB450108B2
:10536000B9440108334301080020FB498861FB4828
:10537000F94948600BE1012002F0FAFF0220F849E8
:10538000C861002048620846C068012802D1F2497D
:10539000886102E00220F0498861F248EE494860E5
:1053A000F5E0012002F0E4FF0420ED49C86100208F
:1053B00048620846C068012803D1E749886103E0D4
:1053C000E4E00220E4498861E748E3494860DEE020
:1053D000012002F0CDFF0820E149C86100204862A9
:1053E0000846C068012802D1DB49886102E002203A
:1053F000D9498861DD48D8494860C8E0022002F0F8
:10540000B7FFDB48D449C860D548C068012801D13E
:10541000886102E00020D0498861B8E0022002F0F3
:10542000A7FF0120CC4988622020CD494862002096
:10543000C8610846C068012802D1C749C86102E0B6
:105440000220C549C861CB48C349C8609FE002201B
:1054500002F08EFF0120C04988628020C049486266
:105460000020C8610846C068012802D1BA49C86155
:1054700002E00220B849C861BF48B749C86086E069
:10548000022002F075FFB648C06BB54908640846B3
:10549000C068012805D1B948B9498862012048622D
:1054A00004E0B848B649886200204862B4480FF06A
:1054B0006AFB0FF09AFA0020B14908620120C86225
:1054C00065E05CE054E04CE02BE0FFE7022002F0F6
:1054D0004FFFA348C06BA2490864A9480069A849C6
:1054E0000860084640694042486008468069886014
:1054F0009B48C068012804D1A04888620120486206
:1055000004E0A0489E498862002048629C480FF051
:105510003AFB0FF06AFA0020994908620120C8623C
:1055200035E0022002F024FF8D48C06B8C490864EE
:105530000846C068012805D1904891498862012039
:10554000486204E08F488E498862002048628C4897
:105550000FF019FB0FF049FA01208949C86216E0E3
:105560005DE0022002F004FF87487B49C8600EE03E
:10557000022002F0FDFE85487749C86007E002205E
:1055800002F0F6FE82487449C86000E000BF00BF28
:1055900045E060680F90A0680D900F98012802D137
:1055A0006F49886002E000206D4988600D9830B135
:1055B000022808D004280AD0082810D10BE00020C7
:1055C000674988610CE002206549886108E0042091
:1055D0006349886104E008206149886100E000BFF8
:1055E00000BF1CE040F2C570804516D1BAF1000F33
:1055F00013D1642002F0E5FF72B66648006820F41B
:105600008000644908600846006820F400100860C3
:10561000614862490860FAF77DFE00E000BF00BF04
:1056200056E016211398017000211398417028212B
:10563000139881701398007940F0800113980171DC
:10564000574890ED000AD0ED010A30EE200AD0ED67
:10565000020A30EE208AB0EE080AC8EE008A90ED09
:10566000000ABDEEC00A10EE100A28604C4890ED0A
:10567000010ABDEEC00A10EE100A6860484890EDBD
:10568000020ABDEEC00A10EE100AA860444890ED70
:10569000030ABDEEC00A10EE100AE8604148D0F8D7
:1056A000400128613E48006E68613D48D0F8D00056
:1056B000A8613B48D0F8D400E8613948D0F8D80058
:1056C00028623748D0F8DC0068620120119000BFE2
:1056D00000BF119870B19DF8540000F0800018B11F
:1056E0009DF85200801D00E00620109014A810992B
:1056F00003F033F82BB0BDEC048BBDE8F08F70B530
:10570000294C00234FF453721946284804F0F0FF47
:1057100005462648006A4AF6552188427ED123482C
:1057200040691F49C1F8940020488069C1F8980079
:105730001E48007F81F89C001C48417F184880F873
:105740009D101A48817F164880F89E10D0F8980066
:1057500007286ED22CE0000018050020C52F010894
:1057600008000020EB310108B9360108333A01087E
:10577000852F0108C33B0108FF3D0108ED470108E3
:10578000E0040020FD470108214201080F41010803
:105790009D3F010830380240EFBEADDEF01F002013
:1057A000885D0120400A0020F45B01200860012090
:1057B000DFE800F00413406B96C1EC000020FE49C6
:1057C000C1F894004FF40060FC4988614010886182
:1057D0000020F949C1F8980004E10120F649C1F818
:1057E0009400C1F89800432081F89C006821F24899
:1057F00080F89D10312180F89E104FF40060EF4931
:10580000886140108861400488610020EC49C1F83B
:105810001401EC49C1F81401E94800E0E3E0D0F8D4
:10582000D400E949C1F8B801D1F8B8010AF0ADFDDA
:10583000D8E0D6E00120E049C1F894000220C1F888
:105840009800432081F89C006821DB4880F89D1077
:10585000322180F89E104FF40060D84988614010D2
:105860008861400488610020D549C1F81401D549F8
:10587000C1F814010846D0F8D400D349C1F8B801E2
:10588000D1F8B8010AF081FDACE00120CA49C1F8A5
:1058900094000320C1F89800432081F89C006821FF
:1058A000C54880F89D10332180F89E104FF40060A9
:1058B000C249886140108861000488610120C049A4
:1058C000C1F81401BF49C1F81401BD48D0F8D8008F
:1058D000BD49C1F8B801D1F8B8010AF056FD81E020
:1058E0000120B549C1F894000420C1F89800432074
:1058F00081F89C006821B04880F89D10342180F820
:105900009E104FF40060AD4988614010886100042A
:1059100088610120AA49C1F81401AA49C1F81401FB
:10592000A748D0F8D800A849C1F8B801D1F8B80103
:105930000AF02BFD56E002209F49C1F89400052093
:10594000C1F89800312081F89C002B219A4880F8FA
:105950009D10322180F89E104FF4006097498861B5
:10596000401088614004886100209549C1F8140105
:105970009449C1F814019248D0F8D4009249C1F872
:10598000B801D1F8B8010AF000FD2BE002208A49E5
:10599000C1F894000620C1F89800332081F89C00DB
:1059A0002B21854880F89D10342180F89E104FF4FB
:1059B000006082498861401088610004886101208C
:1059C0007F49C1F814017F49C1F814017C48D0F81F
:1059D000D8007D49C1F8B801D1F8B8010AF0D5FC6A
:1059E00000E000BF00BF7948806D4AF6552188422B
:1059F00033D17648806C724988647448C06C7149B0
:105A000088647248016D6E48C1647048416D6D488C
:105A1000C1646E48806B6A4988636C48C06B694991
:105A200088636A48016C6648C1636848416C654890
:105A3000C1636648806A6249C1F8D4006348C06A9D
:105A40006049C1F8D4006148016B5D48C0F8D810C6
:105A50005E48416B5B48C0F8D8105C48C06E4AF69F
:105A6000552188420FD15948C06D5549886557481E
:105A7000006E544988655548416E5148C165534888
:105A8000816E5048C1655148D0F8D4004AF655217E
:105A9000884267D14D48006F494908674B48406FBD
:105AA000484908674948816F454841674748C16F81
:105AB000444841674548D0F880004149C1F880001A
:105AC0004248D0F884003F49C1F880003F48D0F8F0
:105AD00088103B48C0F884103C48D0F88C103948F6
